{
  "_format": "hh-sol-artifact-1",
  "contractName": "WavePortal",
  "sourceName": "contracts/WavePortal.sol",
  "abi": [
    {
      "inputs": [],
      "stateMutability": "payable",
      "type": "constructor"
    },
    {
      "anonymous": false,
      "inputs": [
        {
          "indexed": true,
          "internalType": "address",
          "name": "from",
          "type": "address"
        },
        {
          "indexed": false,
          "internalType": "uint256",
          "name": "timestamp",
          "type": "uint256"
        },
        {
          "indexed": false,
          "internalType": "string",
          "name": "message",
          "type": "string"
        }
      ],
      "name": "NewWave",
      "type": "event"
    },
    {
      "inputs": [],
      "name": "getAllWaves",
      "outputs": [
        {
          "components": [
            {
              "internalType": "address",
              "name": "waver",
              "type": "address"
            },
            {
              "internalType": "string",
              "name": "message",
              "type": "string"
            },
            {
              "internalType": "uint256",
              "name": "timestamp",
              "type": "uint256"
            },
            {
              "internalType": "uint256",
              "name": "seed",
              "type": "uint256"
            }
          ],
          "internalType": "struct WavePortal.Wave[]",
          "name": "",
          "type": "tuple[]"
        }
      ],
      "stateMutability": "view",
      "type": "function"
    },
    {
      "inputs": [],
      "name": "getTotalWaves",
      "outputs": [
        {
          "internalType": "uint256",
          "name": "",
          "type": "uint256"
        }
      ],
      "stateMutability": "view",
      "type": "function"
    },
    {
      "inputs": [
        {
          "internalType": "address",
          "name": "",
          "type": "address"
        }
      ],
      "name": "lastWavedAt",
      "outputs": [
        {
          "internalType": "uint256",
          "name": "",
          "type": "uint256"
        }
      ],
      "stateMutability": "view",
      "type": "function"
    },
    {
      "inputs": [
        {
          "internalType": "string",
          "name": "_message",
          "type": "string"
        }
      ],
      "name": "wave",
      "outputs": [],
      "stateMutability": "nonpayable",
      "type": "function"
    }
  ],
  "bytecode": "0x60806040526200004a6040518060400160405280601981526020017f57652068617665206265656e20636f6e737472756374656421000000000000008152506200007260201b60201c565b606444426200005a9190620001b8565b62000066919062000222565b60018190555062000347565b6200011281604051602401620000899190620002f4565b6040516020818303038152906040527f41304fac000000000000000000000000000000000000000000000000000000007bffffffffffffffffffffffffffffffffffffffffffffffffffffffff19166020820180517bffffffffffffffffffffffffffffffffffffffffffffffffffffffff83818316178352505050506200011560201b60201c565b50565b6200013b81620001366200013e60201b6200061a176200015f60201b60201c565b60201c565b50565b60006a636f6e736f6c652e6c6f679050600080835160208501845afa505050565b6200017360201b620006fc17819050919050565b6200017d62000318565b565b6000819050919050565b7f4e487b7100000000000000000000000000000000000000000000000000000000600052601160045260246000fd5b6000620001c5826200017f565b9150620001d2836200017f565b9250828201905080821115620001ed57620001ec62000189565b5b92915050565b7f4e487b7100000000000000000000000000000000000000000000000000000000600052601260045260246000fd5b60006200022f826200017f565b91506200023c836200017f565b9250826200024f576200024e620001f3565b5b828206905092915050565b600081519050919050565b600082825260208201905092915050565b60005b838110156200029657808201518184015260208101905062000279565b60008484015250505050565b6000601f19601f8301169050919050565b6000620002c0826200025a565b620002cc818562000265565b9350620002de81856020860162000276565b620002e981620002a2565b840191505092915050565b60006020820190508181036000830152620003108184620002b3565b905092915050565b7f4e487b7100000000000000000000000000000000000000000000000000000000600052605160045260246000fd5b6111e180620003576000396000f3fe608060405234801561001057600080fd5b506004361061004c5760003560e01c8063449d46c0146100515780639a2cdc081461006d578063a42a46631461008b578063bd43a908146100bb575b600080fd5b61006b60048036038101906100669190610860565b6100d9565b005b61007561049e565b60405161008291906108c2565b60405180910390f35b6100a560048036038101906100a0919061093b565b6104a7565b6040516100b291906108c2565b60405180910390f35b6100c36104bf565b6040516100d09190610b2a565b60405180910390f35b42610384600360003373ffffffffffffffffffffffffffffffffffffffff1673ffffffffffffffffffffffffffffffffffffffff168152602001908152602001600020546101279190610b7b565b10610167576040517f08c379a000000000000000000000000000000000000000000000000000000000815260040161015e90610c0c565b60405180910390fd5b42600360003373ffffffffffffffffffffffffffffffffffffffff1673ffffffffffffffffffffffffffffffffffffffff1681526020019081526020016000208190555060016000808282546101bd9190610b7b565b925050819055506102036040518060400160405280600d81526020017f25732068617320776176656421000000000000000000000000000000000000008152503361063b565b606460015442446102149190610b7b565b61021e9190610b7b565b6102289190610c5b565b600181905550600260405180608001604052803373ffffffffffffffffffffffffffffffffffffffff168152602001838152602001428152602001600154815250908060018154018082558091505060019003906000526020600020906004020160009091909190915060008201518160000160006101000a81548173ffffffffffffffffffffffffffffffffffffffff021916908373ffffffffffffffffffffffffffffffffffffffff16021790555060208201518160010190816102ee9190610e98565b506040820151816002015560608201518160030155505060326001541161044b5761034e6040518060400160405280600781526020017f257320776f6e21000000000000000000000000000000000000000000000000008152503361063b565b6000655af3107a400090504781111561039c576040517f08c379a000000000000000000000000000000000000000000000000000000000815260040161039390610fdc565b60405180910390fd5b60003373ffffffffffffffffffffffffffffffffffffffff16826040516103c29061102d565b60006040518083038185875af1925050503d80600081146103ff576040519150601f19603f3d011682016040523d82523d6000602084013e610404565b606091505b5050905080610448576040517f08c379a000000000000000000000000000000000000000000000000000000000815260040161043f906110b4565b60405180910390fd5b50505b3373ffffffffffffffffffffffffffffffffffffffff167f5f7e16dc676677766a70e9c5628aa6c54ddb8b6e5188e2ae1e1f17f1ffbea716428360405161049392919061110d565b60405180910390a250565b60008054905090565b60036020528060005260406000206000915090505481565b60606002805480602002602001604051908101604052809291908181526020016000905b8282101561061157838290600052602060002090600402016040518060800160405290816000820160009054906101000a900473ffffffffffffffffffffffffffffffffffffffff1673ffffffffffffffffffffffffffffffffffffffff1673ffffffffffffffffffffffffffffffffffffffff16815260200160018201805461056c90610cbb565b80601f016020809104026020016040519081016040528092919081815260200182805461059890610cbb565b80156105e55780601f106105ba576101008083540402835291602001916105e5565b820191906000526020600020905b8154815290600101906020018083116105c857829003601f168201915b5050505050815260200160028201548152602001600382015481525050815260200190600101906104e3565b50505050905090565b60006a636f6e736f6c652e6c6f679050600080835160208501845afa505050565b6106d3828260405160240161065192919061114c565b6040516020818303038152906040527f319af333000000000000000000000000000000000000000000000000000000007bffffffffffffffffffffffffffffffffffffffffffffffffffffffff19166020820180517bffffffffffffffffffffffffffffffffffffffffffffffffffffffff83818316178352505050506106d7565b5050565b6106ee816106e661061a6106f1565b63ffffffff16565b50565b6106fc819050919050565b61070461117c565b565b6000604051905090565b600080fd5b600080fd5b600080fd5b600080fd5b6000601f19601f8301169050919050565b7f4e487b7100000000000000000000000000000000000000000000000000000000600052604160045260246000fd5b61076d82610724565b810181811067ffffffffffffffff8211171561078c5761078b610735565b5b80604052505050565b600061079f610706565b90506107ab8282610764565b919050565b600067ffffffffffffffff8211156107cb576107ca610735565b5b6107d482610724565b9050602081019050919050565b82818337600083830152505050565b60006108036107fe846107b0565b610795565b90508281526020810184848401111561081f5761081e61071f565b5b61082a8482856107e1565b509392505050565b600082601f8301126108475761084661071a565b5b81356108578482602086016107f0565b91505092915050565b60006020828403121561087657610875610710565b5b600082013567ffffffffffffffff81111561089457610893610715565b5b6108a084828501610832565b91505092915050565b6000819050919050565b6108bc816108a9565b82525050565b60006020820190506108d760008301846108b3565b92915050565b600073ffffffffffffffffffffffffffffffffffffffff82169050919050565b6000610908826108dd565b9050919050565b610918816108fd565b811461092357600080fd5b50565b6000813590506109358161090f565b92915050565b60006020828403121561095157610950610710565b5b600061095f84828501610926565b91505092915050565b600081519050919050565b600082825260208201905092915050565b6000819050602082019050919050565b61099d816108fd565b82525050565b600081519050919050565b600082825260208201905092915050565b60005b838110156109dd5780820151818401526020810190506109c2565b60008484015250505050565b60006109f4826109a3565b6109fe81856109ae565b9350610a0e8185602086016109bf565b610a1781610724565b840191505092915050565b610a2b816108a9565b82525050565b6000608083016000830151610a496000860182610994565b5060208301518482036020860152610a6182826109e9565b9150506040830151610a766040860182610a22565b506060830151610a896060860182610a22565b508091505092915050565b6000610aa08383610a31565b905092915050565b6000602082019050919050565b6000610ac082610968565b610aca8185610973565b935083602082028501610adc85610984565b8060005b85811015610b185784840389528151610af98582610a94565b9450610b0483610aa8565b925060208a01995050600181019050610ae0565b50829750879550505050505092915050565b60006020820190508181036000830152610b448184610ab5565b905092915050565b7f4e487b7100000000000000000000000000000000000000000000000000000000600052601160045260246000fd5b6000610b86826108a9565b9150610b91836108a9565b9250828201905080821115610ba957610ba8610b4c565b5b92915050565b600082825260208201905092915050565b7f576169742031356d000000000000000000000000000000000000000000000000600082015250565b6000610bf6600883610baf565b9150610c0182610bc0565b602082019050919050565b60006020820190508181036000830152610c2581610be9565b9050919050565b7f4e487b7100000000000000000000000000000000000000000000000000000000600052601260045260246000fd5b6000610c66826108a9565b9150610c71836108a9565b925082610c8157610c80610c2c565b5b828206905092915050565b7f4e487b7100000000000000000000000000000000000000000000000000000000600052602260045260246000fd5b60006002820490506001821680610cd357607f821691505b602082108103610ce657610ce5610c8c565b5b50919050565b60008190508160005260206000209050919050565b60006020601f8301049050919050565b600082821b905092915050565b600060088302610d4e7fffffffffffffffffffffffffffffffffffffffffffffffffffffffffffffffff82610d11565b610d588683610d11565b95508019841693508086168417925050509392505050565b6000819050919050565b6000610d95610d90610d8b846108a9565b610d70565b6108a9565b9050919050565b6000819050919050565b610daf83610d7a565b610dc3610dbb82610d9c565b848454610d1e565b825550505050565b600090565b610dd8610dcb565b610de3818484610da6565b505050565b5b81811015610e0757610dfc600082610dd0565b600181019050610de9565b5050565b601f821115610e4c57610e1d81610cec565b610e2684610d01565b81016020851015610e35578190505b610e49610e4185610d01565b830182610de8565b50505b505050565b600082821c905092915050565b6000610e6f60001984600802610e51565b1980831691505092915050565b6000610e888383610e5e565b9150826002028217905092915050565b610ea1826109a3565b67ffffffffffffffff811115610eba57610eb9610735565b5b610ec48254610cbb565b610ecf828285610e0b565b600060209050601f831160018114610f025760008415610ef0578287015190505b610efa8582610e7c565b865550610f62565b601f198416610f1086610cec565b60005b82811015610f3857848901518255600182019150602085019450602081019050610f13565b86831015610f555784890151610f51601f891682610e5e565b8355505b6001600288020188555050505b505050505050565b7f547279696e6720746f207769746864726177206d6f7265206d6f6e657920746860008201527f616e207468657920636f6e7472616374206861732e0000000000000000000000602082015250565b6000610fc6603583610baf565b9150610fd182610f6a565b604082019050919050565b60006020820190508181036000830152610ff581610fb9565b9050919050565b600081905092915050565b50565b6000611017600083610ffc565b915061102282611007565b600082019050919050565b60006110388261100a565b9150819050919050565b7f4661696c656420746f207769746864726177206d6f6e65792066726f6d20636f60008201527f6e74726163742e00000000000000000000000000000000000000000000000000602082015250565b600061109e602783610baf565b91506110a982611042565b604082019050919050565b600060208201905081810360008301526110cd81611091565b9050919050565b60006110df826109a3565b6110e98185610baf565b93506110f98185602086016109bf565b61110281610724565b840191505092915050565b600060408201905061112260008301856108b3565b818103602083015261113481846110d4565b90509392505050565b611146816108fd565b82525050565b6000604082019050818103600083015261116681856110d4565b9050611175602083018461113d565b9392505050565b7f4e487b7100000000000000000000000000000000000000000000000000000000600052605160045260246000fdfea2646970667358221220e3842d9fe7ab43f61702e28c0660bf2fa3019df181449542334139d15815eeac64736f6c63430008130033",
  "linkReferences": {},
  "deployedLinkReferences": {}
}